{
  "_format": "hh-sol-artifact-1",
  "contractName": "XCELT",
  "sourceName": "contracts/XCELT.sol",
  "abi": [
    {
      "inputs": [],
      "stateMutability": "nonpayable",
      "type": "constructor"
    },
    {
      "inputs": [
        {
          "internalType": "address",
          "name": "account",
          "type": "address"
        },
        {
          "internalType": "uint256",
          "name": "required",
          "type": "uint256"
        },
        {
          "internalType": "uint256",
          "name": "available",
          "type": "uint256"
        }
      ],
      "name": "InsufficientBalance",
      "type": "error"
    },
    {
      "inputs": [
        {
          "internalType": "uint256",
          "name": "amount",
          "type": "uint256"
        }
      ],
      "name": "InvalidAmount",
      "type": "error"
    },
    {
      "anonymous": false,
      "inputs": [
        {
          "indexed": false,
          "internalType": "address",
          "name": "previousAdmin",
          "type": "address"
        },
        {
          "indexed": false,
          "internalType": "address",
          "name": "newAdmin",
          "type": "address"
        }
      ],
      "name": "AdminChanged",
      "type": "event"
    },
    {
      "anonymous": false,
      "inputs": [
        {
          "indexed": true,
          "internalType": "address",
          "name": "owner",
          "type": "address"
        },
        {
          "indexed": true,
          "internalType": "address",
          "name": "spender",
          "type": "address"
        },
        {
          "indexed": false,
          "internalType": "uint256",
          "name": "value",
          "type": "uint256"
        }
      ],
      "name": "Approval",
      "type": "event"
    },
    {
      "anonymous": false,
      "inputs": [
        {
          "indexed": true,
          "internalType": "address",
          "name": "beacon",
          "type": "address"
        }
      ],
      "name": "BeaconUpgraded",
      "type": "event"
    },
    {
      "anonymous": false,
      "inputs": [
        {
          "indexed": true,
          "internalType": "address",
          "name": "to",
          "type": "address"
        },
        {
          "indexed": false,
          "internalType": "uint256",
          "name": "amount",
          "type": "uint256"
        },
        {
          "indexed": false,
          "internalType": "string",
          "name": "bookingId",
          "type": "string"
        }
      ],
      "name": "CashbackPaid",
      "type": "event"
    },
    {
      "anonymous": false,
      "inputs": [
        {
          "indexed": false,
          "internalType": "uint8",
          "name": "version",
          "type": "uint8"
        }
      ],
      "name": "Initialized",
      "type": "event"
    },
    {
      "anonymous": false,
      "inputs": [
        {
          "indexed": false,
          "internalType": "address",
          "name": "account",
          "type": "address"
        }
      ],
      "name": "Paused",
      "type": "event"
    },
    {
      "anonymous": false,
      "inputs": [
        {
          "indexed": true,
          "internalType": "bytes32",
          "name": "role",
          "type": "bytes32"
        },
        {
          "indexed": true,
          "internalType": "bytes32",
          "name": "previousAdminRole",
          "type": "bytes32"
        },
        {
          "indexed": true,
          "internalType": "bytes32",
          "name": "newAdminRole",
          "type": "bytes32"
        }
      ],
      "name": "RoleAdminChanged",
      "type": "event"
    },
    {
      "anonymous": false,
      "inputs": [
        {
          "indexed": true,
          "internalType": "bytes32",
          "name": "role",
          "type": "bytes32"
        },
        {
          "indexed": true,
          "internalType": "address",
          "name": "account",
          "type": "address"
        },
        {
          "indexed": true,
          "internalType": "address",
          "name": "sender",
          "type": "address"
        }
      ],
      "name": "RoleGranted",
      "type": "event"
    },
    {
      "anonymous": false,
      "inputs": [
        {
          "indexed": true,
          "internalType": "bytes32",
          "name": "role",
          "type": "bytes32"
        },
        {
          "indexed": true,
          "internalType": "address",
          "name": "account",
          "type": "address"
        },
        {
          "indexed": true,
          "internalType": "address",
          "name": "sender",
          "type": "address"
        }
      ],
      "name": "RoleRevoked",
      "type": "event"
    },
    {
      "anonymous": false,
      "inputs": [
        {
          "indexed": true,
          "internalType": "address",
          "name": "from",
          "type": "address"
        },
        {
          "indexed": false,
          "internalType": "uint256",
          "name": "amount",
          "type": "uint256"
        }
      ],
      "name": "TokensBurned",
      "type": "event"
    },
    {
      "anonymous": false,
      "inputs": [
        {
          "indexed": true,
          "internalType": "address",
          "name": "to",
          "type": "address"
        },
        {
          "indexed": false,
          "internalType": "uint256",
          "name": "amount",
          "type": "uint256"
        }
      ],
      "name": "TokensMinted",
      "type": "event"
    },
    {
      "anonymous": false,
      "inputs": [
        {
          "indexed": true,
          "internalType": "address",
          "name": "from",
          "type": "address"
        },
        {
          "indexed": true,
          "internalType": "address",
          "name": "to",
          "type": "address"
        },
        {
          "indexed": false,
          "internalType": "uint256",
          "name": "value",
          "type": "uint256"
        }
      ],
      "name": "Transfer",
      "type": "event"
    },
    {
      "anonymous": false,
      "inputs": [
        {
          "indexed": false,
          "internalType": "address",
          "name": "account",
          "type": "address"
        }
      ],
      "name": "Unpaused",
      "type": "event"
    },
    {
      "anonymous": false,
      "inputs": [
        {
          "indexed": true,
          "internalType": "address",
          "name": "implementation",
          "type": "address"
        }
      ],
      "name": "Upgraded",
      "type": "event"
    },
    {
      "inputs": [],
      "name": "ADMIN_ROLE",
      "outputs": [
        {
          "internalType": "bytes32",
          "name": "",
          "type": "bytes32"
        }
      ],
      "stateMutability": "view",
      "type": "function"
    },
    {
      "inputs": [],
      "name": "BURNER_ROLE",
      "outputs": [
        {
          "internalType": "bytes32",
          "name": "",
          "type": "bytes32"
        }
      ],
      "stateMutability": "view",
      "type": "function"
    },
    {
      "inputs": [],
      "name": "DEFAULT_ADMIN_ROLE",
      "outputs": [
        {
          "internalType": "bytes32",
          "name": "",
          "type": "bytes32"
        }
      ],
      "stateMutability": "view",
      "type": "function"
    },
    {
      "inputs": [],
      "name": "MINTER_ROLE",
      "outputs": [
        {
          "internalType": "bytes32",
          "name": "",
          "type": "bytes32"
        }
      ],
      "stateMutability": "view",
      "type": "function"
    },
    {
      "inputs": [],
      "name": "UPGRADER_ROLE",
      "outputs": [
        {
          "internalType": "bytes32",
          "name": "",
          "type": "bytes32"
        }
      ],
      "stateMutability": "view",
      "type": "function"
    },
    {
      "inputs": [
        {
          "internalType": "address",
          "name": "owner",
          "type": "address"
        },
        {
          "internalType": "address",
          "name": "spender",
          "type": "address"
        }
      ],
      "name": "allowance",
      "outputs": [
        {
          "internalType": "uint256",
          "name": "",
          "type": "uint256"
        }
      ],
      "stateMutability": "view",
      "type": "function"
    },
    {
      "inputs": [
        {
          "internalType": "address",
          "name": "spender",
          "type": "address"
        },
        {
          "internalType": "uint256",
          "name": "amount",
          "type": "uint256"
        }
      ],
      "name": "approve",
      "outputs": [
        {
          "internalType": "bool",
          "name": "",
          "type": "bool"
        }
      ],
      "stateMutability": "nonpayable",
      "type": "function"
    },
    {
      "inputs": [
        {
          "internalType": "address",
          "name": "account",
          "type": "address"
        }
      ],
      "name": "balanceOf",
      "outputs": [
        {
          "internalType": "uint256",
          "name": "",
          "type": "uint256"
        }
      ],
      "stateMutability": "view",
      "type": "function"
    },
    {
      "inputs": [
        {
          "internalType": "address[]",
          "name": "recipients",
          "type": "address[]"
        },
        {
          "internalType": "uint256[]",
          "name": "amounts",
          "type": "uint256[]"
        }
      ],
      "name": "batchMint",
      "outputs": [],
      "stateMutability": "nonpayable",
      "type": "function"
    },
    {
      "inputs": [
        {
          "internalType": "uint256",
          "name": "amount",
          "type": "uint256"
        }
      ],
      "name": "burn",
      "outputs": [],
      "stateMutability": "nonpayable",
      "type": "function"
    },
    {
      "inputs": [
        {
          "internalType": "address",
          "name": "from",
          "type": "address"
        },
        {
          "internalType": "uint256",
          "name": "amount",
          "type": "uint256"
        }
      ],
      "name": "burn",
      "outputs": [],
      "stateMutability": "nonpayable",
      "type": "function"
    },
    {
      "inputs": [],
      "name": "decimals",
      "outputs": [
        {
          "internalType": "uint8",
          "name": "",
          "type": "uint8"
        }
      ],
      "stateMutability": "view",
      "type": "function"
    },
    {
      "inputs": [
        {
          "internalType": "address",
          "name": "spender",
          "type": "address"
        },
        {
          "internalType": "uint256",
          "name": "subtractedValue",
          "type": "uint256"
        }
      ],
      "name": "decreaseAllowance",
      "outputs": [
        {
          "internalType": "bool",
          "name": "",
          "type": "bool"
        }
      ],
      "stateMutability": "nonpayable",
      "type": "function"
    },
    {
      "inputs": [
        {
          "internalType": "bytes32",
          "name": "role",
          "type": "bytes32"
        }
      ],
      "name": "getRoleAdmin",
      "outputs": [
        {
          "internalType": "bytes32",
          "name": "",
          "type": "bytes32"
        }
      ],
      "stateMutability": "view",
      "type": "function"
    },
    {
      "inputs": [
        {
          "internalType": "bytes32",
          "name": "role",
          "type": "bytes32"
        },
        {
          "internalType": "address",
          "name": "account",
          "type": "address"
        }
      ],
      "name": "grantRole",
      "outputs": [],
      "stateMutability": "nonpayable",
      "type": "function"
    },
    {
      "inputs": [
        {
          "internalType": "bytes32",
          "name": "role",
          "type": "bytes32"
        },
        {
          "internalType": "address",
          "name": "account",
          "type": "address"
        }
      ],
      "name": "hasRole",
      "outputs": [
        {
          "internalType": "bool",
          "name": "",
          "type": "bool"
        }
      ],
      "stateMutability": "view",
      "type": "function"
    },
    {
      "inputs": [
        {
          "internalType": "address",
          "name": "spender",
          "type": "address"
        },
        {
          "internalType": "uint256",
          "name": "addedValue",
          "type": "uint256"
        }
      ],
      "name": "increaseAllowance",
      "outputs": [
        {
          "internalType": "bool",
          "name": "",
          "type": "bool"
        }
      ],
      "stateMutability": "nonpayable",
      "type": "function"
    },
    {
      "inputs": [
        {
          "internalType": "string",
          "name": "name",
          "type": "string"
        },
        {
          "internalType": "string",
          "name": "symbol",
          "type": "string"
        },
        {
          "internalType": "uint256",
          "name": "initialSupply",
          "type": "uint256"
        },
        {
          "internalType": "address",
          "name": "admin",
          "type": "address"
        }
      ],
      "name": "initialize",
      "outputs": [],
      "stateMutability": "nonpayable",
      "type": "function"
    },
    {
      "inputs": [
        {
          "internalType": "address",
          "name": "to",
          "type": "address"
        },
        {
          "internalType": "uint256",
          "name": "amount",
          "type": "uint256"
        }
      ],
      "name": "mint",
      "outputs": [],
      "stateMutability": "nonpayable",
      "type": "function"
    },
    {
      "inputs": [],
      "name": "name",
      "outputs": [
        {
          "internalType": "string",
          "name": "",
          "type": "string"
        }
      ],
      "stateMutability": "view",
      "type": "function"
    },
    {
      "inputs": [],
      "name": "pause",
      "outputs": [],
      "stateMutability": "nonpayable",
      "type": "function"
    },
    {
      "inputs": [],
      "name": "paused",
      "outputs": [
        {
          "internalType": "bool",
          "name": "",
          "type": "bool"
        }
      ],
      "stateMutability": "view",
      "type": "function"
    },
    {
      "inputs": [
        {
          "internalType": "address",
          "name": "to",
          "type": "address"
        },
        {
          "internalType": "uint256",
          "name": "amount",
          "type": "uint256"
        },
        {
          "internalType": "string",
          "name": "bookingId",
          "type": "string"
        }
      ],
      "name": "payCashback",
      "outputs": [],
      "stateMutability": "nonpayable",
      "type": "function"
    },
    {
      "inputs": [],
      "name": "proxiableUUID",
      "outputs": [
        {
          "internalType": "bytes32",
          "name": "",
          "type": "bytes32"
        }
      ],
      "stateMutability": "view",
      "type": "function"
    },
    {
      "inputs": [
        {
          "internalType": "bytes32",
          "name": "role",
          "type": "bytes32"
        },
        {
          "internalType": "address",
          "name": "account",
          "type": "address"
        }
      ],
      "name": "renounceRole",
      "outputs": [],
      "stateMutability": "nonpayable",
      "type": "function"
    },
    {
      "inputs": [
        {
          "internalType": "bytes32",
          "name": "role",
          "type": "bytes32"
        },
        {
          "internalType": "address",
          "name": "account",
          "type": "address"
        }
      ],
      "name": "revokeRole",
      "outputs": [],
      "stateMutability": "nonpayable",
      "type": "function"
    },
    {
      "inputs": [
        {
          "internalType": "bytes4",
          "name": "interfaceId",
          "type": "bytes4"
        }
      ],
      "name": "supportsInterface",
      "outputs": [
        {
          "internalType": "bool",
          "name": "",
          "type": "bool"
        }
      ],
      "stateMutability": "view",
      "type": "function"
    },
    {
      "inputs": [],
      "name": "symbol",
      "outputs": [
        {
          "internalType": "string",
          "name": "",
          "type": "string"
        }
      ],
      "stateMutability": "view",
      "type": "function"
    },
    {
      "inputs": [],
      "name": "totalSupply",
      "outputs": [
        {
          "internalType": "uint256",
          "name": "",
          "type": "uint256"
        }
      ],
      "stateMutability": "view",
      "type": "function"
    },
    {
      "inputs": [
        {
          "internalType": "address",
          "name": "to",
          "type": "address"
        },
        {
          "internalType": "uint256",
          "name": "amount",
          "type": "uint256"
        }
      ],
      "name": "transfer",
      "outputs": [
        {
          "internalType": "bool",
          "name": "",
          "type": "bool"
        }
      ],
      "stateMutability": "nonpayable",
      "type": "function"
    },
    {
      "inputs": [
        {
          "internalType": "address",
          "name": "from",
          "type": "address"
        },
        {
          "internalType": "address",
          "name": "to",
          "type": "address"
        },
        {
          "internalType": "uint256",
          "name": "amount",
          "type": "uint256"
        }
      ],
      "name": "transferFrom",
      "outputs": [
        {
          "internalType": "bool",
          "name": "",
          "type": "bool"
        }
      ],
      "stateMutability": "nonpayable",
      "type": "function"
    },
    {
      "inputs": [],
      "name": "unpause",
      "outputs": [],
      "stateMutability": "nonpayable",
      "type": "function"
    },
    {
      "inputs": [
        {
          "internalType": "address",
          "name": "newImplementation",
          "type": "address"
        }
      ],
      "name": "upgradeTo",
      "outputs": [],
      "stateMutability": "nonpayable",
      "type": "function"
    },
    {
      "inputs": [
        {
          "internalType": "address",
          "name": "newImplementation",
          "type": "address"
        },
        {
          "internalType": "bytes",
          "name": "data",
          "type": "bytes"
        }
      ],
      "name": "upgradeToAndCall",
      "outputs": [],
      "stateMutability": "payable",
      "type": "function"
    }
  ],
  "bytecode": "0x60a080604052346100dd57306080526000549060ff8260081c1661008b575060ff80821603610050575b604051612f939081620000e3823960805181818161133b0152818161143a01526119090152f35b60ff90811916176000557f7f26b83ff96e1f2b6a682f133852f6798a09c465da95921460cefb3847402498602060405160ff8152a138610029565b62461bcd60e51b815260206004820152602760248201527f496e697469616c697a61626c653a20636f6e747261637420697320696e697469604482015266616c697a696e6760c81b6064820152608490fd5b600080fdfe608080604052600436101561001357600080fd5b60003560e01c90816301ffc9a714611ec35750806306fdde0314611e2f578063095ea7b314611e0957806318160ddd14611deb57806323b872dd14611d2d578063248a9ca314611cfe578063282c51f314611cc35780632f2ff15d14611c22578063313ce56714611c0657806336568abe14611b745780633659cfe6146118e457806339509351146118935780633f4ba83a146117ff57806340c10f191461176557806342966c68146116aa5780634f1ef286146113ec57806352d1902d146113285780635c975abb1461130557806368573107146110da57806370a08231146110a057806375b238fc146110655780638456cb591461100b57806391d1485414610fbe57806395d89b4114610ed85780639dc29fac14610bd5578063a217fddf14610bb9578063a457c2d714610b12578063a9059cbb14610ae1578063bd3a13f614610372578063c8670dc9146102a2578063d539139314610267578063d547741f14610226578063dd62ed3e146101d55763f72c0d8b1461019557600080fd5b346101d05760003660031901126101d05760206040517f189ab7a9244df0848122154315af71fe140f3db0fe014031783b0946b8c9d2e38152f35b600080fd5b346101d05760403660031901126101d0576101ee611f5e565b6101f6611f74565b9060018060a01b038091166000526034602052604060002091166000526020526020604060002054604051908152f35b346101d05760403660031901126101d057610265600435610245611f74565b908060005260976020526102606001604060002001546124e0565b6125eb565b005b346101d05760003660031901126101d05760206040517f9f2df0fed2c77648de5860a4cc508cd0818c85b8b8a1ab4ceeef8d981c8956a68152f35b346101d05760603660031901126101d0576102bb611f5e565b602435906044356001600160401b0381116101d0576102de90369060040161204a565b906102e761239b565b6102ef612d44565b6102f7612d88565b8215610359578261032a7f079e72a733f32719245cc78a5f79ec0f8e802cc0295a7135f0f4dd3dab0831c5939483612ca0565b61034f60405192839283526040602084015260018060a01b0316946040830190611f39565b0390a2600160fb55005b604051633728b83d60e01b815260048101849052602490fd5b346101d05760803660031901126101d0576004356001600160401b0381116101d0576103a290369060040161204a565b6024356001600160401b0381116101d0576103c190369060040161204a565b6064356001600160a01b03811690036101d05760005460ff8160081c161590818092610ad4575b8015610abd575b15610a615760ff19811660011760005581610a4f575b5061042060ff60005460081c1661041b81612c40565b612c40565b82516001600160401b03811161094d5761043b6036546127b3565b601f81116109e2575b506020601f821160011461096e5781929394600092610963575b50508160011b916000199060031b1c1916176036555b81516001600160401b03811161094d5761048f6037546127b3565b601f81116108e8575b50602092601f8211600114610866579281929360009261085b575b50508160011b916000199060031b1c1916176037555b61051660ff60005460081c166104de81612c40565b6104e781612c40565b6104f081612c40565b60ff1960c9541660c95561050381612c40565b61050c81612c40565b600160fb55612c40565b6064356001600160a01b031660009081527f683723e34a772b6e4f2c919bba7fa32ed8ea11a8325f54da7db716e9d9dd98c7602052604090205460979060ff1615610815575b7fa49807205ce4d355092ef5a8a18f56e8913cf4a201fbe287825b095693c217756000818152602083815260408083206064356001600160a01b0316845290915290205460ff16156107cc575b507f9f2df0fed2c77648de5860a4cc508cd0818c85b8b8a1ab4ceeef8d981c8956a66000818152602083815260408083206064356001600160a01b0316845290915290205460ff1615610783575b507f3c11d16cbaffd01df69ce1c404f6340ee057498f5f00246190ea54220576a8486000818152602083815260408083206064356001600160a01b0316845290915290205460ff161561073a575b507f189ab7a9244df0848122154315af71fe140f3db0fe014031783b0946b8c9d2e3908160005280602052604060002060018060a01b036064351660005260205260ff60406000205416156106f1575b5050604435806106df575b506106a757005b61ff0019600054166000557f7f26b83ff96e1f2b6a682f133852f6798a09c465da95921460cefb3847402498602060405160018152a1005b6106eb90606435612ca0565b816106a0565b6000828152602091825260408082206064356001600160a01b031680845293528120805460ff19166001179055339290600080516020612efe8339815191529080a48180610695565b6000818152602083815260408083206064356001600160a01b031680855292528220805460ff1916600117905533929091600080516020612efe8339815191529080a482610645565b6000818152602083815260408083206064356001600160a01b031680855292528220805460ff1916600117905533929091600080516020612efe8339815191529080a4826105f7565b6000818152602083815260408083206064356001600160a01b031680855292528220805460ff1916600117905533929091600080516020612efe8339815191529080a4826105a9565b6000808052602082815260408083206064356001600160a01b031680855292528220805460ff191660011790553391600080516020612efe8339815191528180a461055c565b0151905083806104b3565b601f1982169360376000527f42a7b7dd785cd69714a189dffb3fd7d7174edc9ece837694ce50f7078f7c31ae9160005b8681106108d057508360019596106108b7575b505050811b016037556104c9565b015160001960f88460031b161c191690558380806108a9565b91926020600181928685015181550194019201610896565b60376000527f42a7b7dd785cd69714a189dffb3fd7d7174edc9ece837694ce50f7078f7c31ae601f830160051c81019160208410610943575b601f0160051c01905b8181106109375750610498565b6000815560010161092a565b9091508190610921565b634e487b7160e01b600052604160045260246000fd5b01519050848061045e565b6036600052600080516020612f1e8339815191529060005b601f19841681106109ca5750600193949583601f198116106109b1575b505050811b01603655610474565b015160001960f88460031b161c191690558480806109a3565b9091602060018192858a015181550193019101610986565b6036600052601f820160051c600080516020612f1e8339815191520160208310610a3a575b601f90910160051c600080516020612f1e83398151915201905b818110610a2e5750610444565b60008155600101610a21565b50600080516020612f1e833981519152610a07565b61ffff19166101011760005583610405565b60405162461bcd60e51b815260206004820152602e60248201527f496e697469616c697a61626c653a20636f6e747261637420697320616c72656160448201526d191e481a5b9a5d1a585b1a5e995960921b6064820152608490fd5b50303b1580156103ef5750600160ff8216146103ef565b50600160ff8216106103e8565b346101d05760403660031901126101d057610b07610afd611f5e565b6024359033612810565b602060405160018152f35b346101d05760403660031901126101d057610b2b611f5e565b60243590336000526034602052604060002060018060a01b03821660005260205260406000205491808310610b6657610b0792039033612980565b60405162461bcd60e51b815260206004820152602560248201527f45524332303a2064656372656173656420616c6c6f77616e63652062656c6f77604482015264207a65726f60d81b6064820152608490fd5b346101d05760003660031901126101d057602060405160008152f35b346101d05760403660031901126101d057610bee611f5e565b3360009081527fc3c8c7e4fab505d509bd381fc6e46feb8541ec60cbf617fe952ca0ec2b020b856020908152604090912054602480359392917f3c11d16cbaffd01df69ce1c404f6340ee057498f5f00246190ea54220576a8489060ff1615610d105750610c5a612d44565b610c62612d88565b8315610cfa57506001600160a01b0382166000818152603383526040902054909290848110610cc7575092610cb9817ffd38818f5291bf0bb3a2a48aadc06ba8757865d1dabd804585338aab3009dcb69495612dde565b604051908152a2600160fb55005b60405163db42144d60e01b81526001600160a01b03929092166004830152602482018590526044820152606490fd5b0390fd5b604051633728b83d60e01b815260048101859052fd5b8290610d1b33612b42565b90604051610d2881611fa5565b60428152838101916060368437815115610ec357603083538151600190811015610eae57607860218401536041905b808211610e40575050610dfe576048610cf693610dd393610de29360405195869376020b1b1b2b9b9a1b7b73a3937b61d1030b1b1b7bab73a1604d1b8a860152610daa815180928c603789019101611f16565b8401917001034b99036b4b9b9b4b733903937b6329607d1b603784015251809386840190611f16565b01036028810184520182611fc0565b60405193849362461bcd60e51b85526004850152830190611f39565b606485856040519162461bcd60e51b83528160048401528201527f537472696e67733a20686578206c656e67746820696e73756666696369656e746044820152fd5b9091600f81166010811015610e99576f181899199a1a9b1b9c1cb0b131b232b360811b901a610e6f8486612b1b565b5360041c918015610e84576000190190610d57565b87634e487b7160e01b60005260116004526000fd5b88634e487b7160e01b60005260326004526000fd5b86634e487b7160e01b60005260326004526000fd5b85634e487b7160e01b60005260326004526000fd5b346101d05760003660031901126101d0576040516000603754610efa816127b3565b80845290600190818116908115610f975750600114610f3c575b610f3884610f2481860382611fc0565b604051918291602083526020830190611f39565b0390f35b6037600090815292507f42a7b7dd785cd69714a189dffb3fd7d7174edc9ece837694ce50f7078f7c31ae5b828410610f7f575050508101602001610f2482610f14565b80546020858701810191909152909301928101610f67565b60ff191660208087019190915292151560051b85019092019250610f249150839050610f14565b346101d05760403660031901126101d057610fd7611f74565b600435600052609760205260406000209060018060a01b0316600052602052602060ff604060002054166040519015158152f35b346101d05760003660031901126101d057611024612256565b61102c612d44565b600160ff1960c954161760c9557f62e78cea01bee320cd4e420270b5ea74000d11b0c9f74754ebdbfc544b05a2586020604051338152a1005b346101d05760003660031901126101d05760206040517fa49807205ce4d355092ef5a8a18f56e8913cf4a201fbe287825b095693c217758152f35b346101d05760203660031901126101d0576001600160a01b036110c1611f5e565b1660005260336020526020604060002054604051908152f35b346101d05760403660031901126101d0576001600160401b036004358181116101d057366023820112156101d05780600401359161111783612033565b916111256040519384611fc0565b8383526020908184016024809660051b830101913683116101d0578601905b8282106112e65750505083359182116101d057366023830112156101d05781600401359161117183612033565b9261117f6040519485611fc0565b808452858385019160051b830101913683116101d05786849101915b8383106112d657505050506111ae61239b565b6111b6612d44565b6111be612d88565b825182510361129a5760005b8351811015611293576111dd8184612ee9565b5115611272576001600160a01b0361120c816111f98488612ee9565b51166112058487612ee9565b5190612ca0565b6112168286612ee9565b51167f3f2c9d57c068687834f0de942a9babb9e5acab57d516d3480a3c16ee165a4273836112448487612ee9565b51604051908152a2600019811461125d576001016111ca565b84634e487b7160e01b60005260116004526000fd5b61127d859184612ee9565b5160405190633728b83d60e01b82526004820152fd5b600160fb55005b6064906016856040519262461bcd60e51b8452600484015282015275082e4e4c2f2e640d8cadccee8d040dad2e6dac2e8c6d60531b6044820152fd5b823581529181019184910161119b565b81356001600160a01b03811681036101d0578152908301908301611144565b346101d05760003660031901126101d057602060ff60c954166040519015158152f35b346101d05760003660031901126101d0577f00000000000000000000000000000000000000000000000000000000000000006001600160a01b03163003611381576020604051600080516020612f3e8339815191528152f35b60405162461bcd60e51b815260206004820152603860248201527f555550535570677261646561626c653a206d757374206e6f742062652063616c60448201527f6c6564207468726f7567682064656c656761746563616c6c00000000000000006064820152608490fd5b60403660031901126101d057611400611f5e565b6024356001600160401b0381116101d057366023820112156101d057611430903690602481600401359101611ffc565b6001600160a01b037f00000000000000000000000000000000000000000000000000000000000000008116919061146930841415612661565b611486600080516020612f3e8339815191529382855416146126c2565b61148e612068565b7f4910fdfa16fed3260ed0e7147f7cc6da11a60208b5b9406d12a635614ffd91435460ff16156114c45750505061026590612723565b8316604051926352d1902d60e01b84526020938481600481865afa6000918161167b575b506115495760405162461bcd60e51b815260048101869052602e60248201527f45524331393637557067726164653a206e657720696d706c656d656e7461746960448201526d6f6e206973206e6f74205555505360901b6064820152608490fd5b939293036116245761155a84612723565b7fbc7cd75a20ee27fd9adebab32041f755214dbc6bffa90cc0225b39da2e5c2d3b600080a281511580159061161c575b61159057005b61026592600080604051946115a486611f8a565b602786527f416464726573733a206c6f772d6c6576656c2064656c65676174652063616c6c85870152660819985a5b195960ca1b60408701528481519101845af4903d15611613573d6115f681611fe1565b906116046040519283611fc0565b8152600081943d92013e612a82565b60609250612a82565b50600161158a565b60405162461bcd60e51b815260048101839052602960248201527f45524331393637557067726164653a20756e737570706f727465642070726f786044820152681a58589b195555525160ba1b6064820152608490fd5b9091508581813d83116116a3575b6116938183611fc0565b810103126101d0575190876114e8565b503d611689565b346101d05760203660031901126101d0576004356116c6612d44565b6116ce612d88565b801561174d5733600052603360205260406000205481811061172857506116f58133612dde565b6040519081527ffd38818f5291bf0bb3a2a48aadc06ba8757865d1dabd804585338aab3009dcb660203392a2600160fb55005b60405163db42144d60e01b815233600482015260248101929092526044820152606490fd5b60249060405190633728b83d60e01b82526004820152fd5b346101d05760403660031901126101d05761177e611f5e565b6024359061178a61239b565b611792612d44565b61179a612d88565b81156117e6576020816117ce847f3f2c9d57c068687834f0de942a9babb9e5acab57d516d3480a3c16ee165a427394612ca0565b6040519384526001600160a01b031692a2600160fb55005b604051633728b83d60e01b815260048101839052602490fd5b346101d05760003660031901126101d057611818612256565b60c95460ff8116156118575760ff191660c9557f5db9ee0a495bf2e6ff9c91a7834c1ba4fdd244a5e8aa4e537bd38aeae4b073aa6020604051338152a1005b60405162461bcd60e51b815260206004820152601460248201527314185d5cd8589b194e881b9bdd081c185d5cd95960621b6044820152606490fd5b346101d05760403660031901126101d057610b076118af611f5e565b336000526034602052604060002060018060a01b0382166000526020526118dd6024356040600020546127ed565b9033612980565b346101d0576020806003193601126101d0576118fe611f5e565b6001600160a01b03917f0000000000000000000000000000000000000000000000000000000000000000831661193630821415612661565b611953600080516020612f3e8339815191529185835416146126c2565b61195b612068565b60405190828201948286106001600160401b0387111761094d57856040526000835260ff7f4910fdfa16fed3260ed0e7147f7cc6da11a60208b5b9406d12a635614ffd914354166000146119b757505050506102659150612723565b8492939416906040516352d1902d60e01b81528581600481865afa60009181611b45575b50611a3c5760405162461bcd60e51b815260048101879052602e60248201527f45524331393637557067726164653a206e657720696d706c656d656e7461746960448201526d6f6e206973206e6f74205555505360901b6064820152608490fd5b94939403611aee57611a4d82612723565b7fbc7cd75a20ee27fd9adebab32041f755214dbc6bffa90cc0225b39da2e5c2d3b600080a2825115801590611ae6575b611a8357005b6000806102659560405195611a9787611f8a565b602787527f416464726573733a206c6f772d6c6576656c2064656c65676174652063616c6c86880152660819985a5b195960ca1b60408801525190845af4903d15611613573d6115f681611fe1565b506000611a7d565b60405162461bcd60e51b815260048101849052602960248201527f45524331393637557067726164653a20756e737570706f727465642070726f786044820152681a58589b195555525160ba1b6064820152608490fd5b9091508681813d8311611b6d575b611b5d8183611fc0565b810103126101d0575190886119db565b503d611b53565b346101d05760403660031901126101d057611b8d611f74565b336001600160a01b03821603611ba957610265906004356125eb565b60405162461bcd60e51b815260206004820152602f60248201527f416363657373436f6e74726f6c3a2063616e206f6e6c792072656e6f756e636560448201526e103937b632b9903337b91039b2b63360891b6064820152608490fd5b346101d05760003660031901126101d057602060405160128152f35b346101d05760403660031901126101d057600435611c3e611f74565b816000526097602052611c586001604060002001546124e0565b81600052609760205260406000209060018060a01b0316908160005260205260ff6040600020541615611c8757005b8160005260976020526040600020816000526020526040600020600160ff198254161790553391600080516020612efe833981519152600080a4005b346101d05760003660031901126101d05760206040517f3c11d16cbaffd01df69ce1c404f6340ee057498f5f00246190ea54220576a8488152f35b346101d05760203660031901126101d05760043560005260976020526020600160406000200154604051908152f35b346101d05760603660031901126101d057611d46611f5e565b611d4e611f74565b6044359060018060a01b0383166000526034602052604060002033600052602052604060002054926000198403611d8a575b610b079350612810565b828410611da657611da183610b0795033383612980565b611d80565b60405162461bcd60e51b815260206004820152601d60248201527f45524332303a20696e73756666696369656e7420616c6c6f77616e63650000006044820152606490fd5b346101d05760003660031901126101d0576020603554604051908152f35b346101d05760403660031901126101d057610b07611e25611f5e565b6024359033612980565b346101d05760003660031901126101d0576040516000603654611e51816127b3565b80845290600190818116908115610f975750600114611e7a57610f3884610f2481860382611fc0565b603660009081529250600080516020612f1e8339815191525b828410611eab575050508101602001610f2482610f14565b80546020858701810191909152909301928101611e93565b346101d05760203660031901126101d0576004359063ffffffff60e01b82168092036101d057602091637965db0b60e01b8114908115611f05575b5015158152f35b6301ffc9a760e01b14905083611efe565b60005b838110611f295750506000910152565b8181015183820152602001611f19565b90602091611f5281518092818552858086019101611f16565b601f01601f1916010190565b600435906001600160a01b03821682036101d057565b602435906001600160a01b03821682036101d057565b606081019081106001600160401b0382111761094d57604052565b608081019081106001600160401b0382111761094d57604052565b90601f801991011681019081106001600160401b0382111761094d57604052565b6001600160401b03811161094d57601f01601f191660200190565b92919261200882611fe1565b916120166040519384611fc0565b8294818452818301116101d0578281602093846000960137010152565b6001600160401b03811161094d5760051b60200190565b9080601f830112156101d05781602061206593359101611ffc565b90565b3360009081527f75ef4a815c49ed748e152e890233829acb868956b95bda132b61406c3628008c602090815260408083205490927f189ab7a9244df0848122154315af71fe140f3db0fe014031783b0946b8c9d2e39160ff16156120cc5750505050565b6120d533612b42565b918451906120e282611fa5565b6042825284820192606036853782511561224257603084538251906001918210156122425790607860218501536041915b8183116121d457505050612192576048610cf693869361217693612167985198899376020b1b1b2b9b9a1b7b73a3937b61d1030b1b1b7bab73a1604d1b8a860152610daa815180928c603789019101611f16565b01036028810187520185611fc0565b5192839262461bcd60e51b845260048401526024830190611f39565b60648486519062461bcd60e51b825280600483015260248201527f537472696e67733a20686578206c656e67746820696e73756666696369656e746044820152fd5b909192600f8116601081101561222e576f181899199a1a9b1b9c1cb0b131b232b360811b901a6122048587612b1b565b5360041c92801561221a57600019019190612113565b634e487b7160e01b82526011600452602482fd5b634e487b7160e01b83526032600452602483fd5b634e487b7160e01b81526032600452602490fd5b3360009081527f9805bb80c0cb3b8457cbce774d5adda6e717284b7d1e937eb2fdc8bbff924719602090815260408083205490927fa49807205ce4d355092ef5a8a18f56e8913cf4a201fbe287825b095693c217759160ff16156122ba5750505050565b6122c333612b42565b918451906122d082611fa5565b6042825284820192606036853782511561224257603084538251906001918210156122425790607860218501536041915b81831161235557505050612192576048610cf693869361217693612167985198899376020b1b1b2b9b9a1b7b73a3937b61d1030b1b1b7bab73a1604d1b8a860152610daa815180928c603789019101611f16565b909192600f8116601081101561222e576f181899199a1a9b1b9c1cb0b131b232b360811b901a6123858587612b1b565b5360041c92801561221a57600019019190612301565b3360009081527f81bcdf06b56c0ed62a68a6ae231e66722c27e6665c84ec0015693a6d86f2bb93602090815260408083205490927f9f2df0fed2c77648de5860a4cc508cd0818c85b8b8a1ab4ceeef8d981c8956a69160ff16156123ff5750505050565b61240833612b42565b9184519061241582611fa5565b6042825284820192606036853782511561224257603084538251906001918210156122425790607860218501536041915b81831161249a57505050612192576048610cf693869361217693612167985198899376020b1b1b2b9b9a1b7b73a3937b61d1030b1b1b7bab73a1604d1b8a860152610daa815180928c603789019101611f16565b909192600f8116601081101561222e576f181899199a1a9b1b9c1cb0b131b232b360811b901a6124ca8587612b1b565b5360041c92801561221a57600019019190612446565b60009080825260209060978252604092838120338252835260ff84822054161561250a5750505050565b61251333612b42565b9184519061252082611fa5565b6042825284820192606036853782511561224257603084538251906001918210156122425790607860218501536041915b8183116125a557505050612192576048610cf693869361217693612167985198899376020b1b1b2b9b9a1b7b73a3937b61d1030b1b1b7bab73a1604d1b8a860152610daa815180928c603789019101611f16565b909192600f8116601081101561222e576f181899199a1a9b1b9c1cb0b131b232b360811b901a6125d58587612b1b565b5360041c92801561221a57600019019190612551565b906000918083526097602052604083209160018060a01b03169182845260205260ff60408420541661261c57505050565b8083526097602052604083208284526020526040832060ff1981541690557ff6391f5c32d9c69d2a47ea670b442974b53935d1edc7fd64eb21e047a839171b339380a4565b1561266857565b60405162461bcd60e51b815260206004820152602c60248201527f46756e6374696f6e206d7573742062652063616c6c6564207468726f7567682060448201526b19195b1959d85d1958d85b1b60a21b6064820152608490fd5b156126c957565b60405162461bcd60e51b815260206004820152602c60248201527f46756e6374696f6e206d7573742062652063616c6c6564207468726f7567682060448201526b6163746976652070726f787960a01b6064820152608490fd5b803b1561275857600080516020612f3e83398151915280546001600160a01b0319166001600160a01b03909216919091179055565b60405162461bcd60e51b815260206004820152602d60248201527f455243313936373a206e657720696d706c656d656e746174696f6e206973206e60448201526c1bdd08184818dbdb9d1c9858dd609a1b6064820152608490fd5b90600182811c921680156127e3575b60208310146127cd57565b634e487b7160e01b600052602260045260246000fd5b91607f16916127c2565b919082018092116127fa57565b634e487b7160e01b600052601160045260246000fd5b6001600160a01b0390811691821561292d57169182156128dc576000828152603360205260408120549180831061288857604082827fddf252ad1be2c89b69c2b068fc378daa952ba7f163c4a11628f55a4df523b3ef95876020965260338652038282205586815220818154019055604051908152a3565b60405162461bcd60e51b815260206004820152602660248201527f45524332303a207472616e7366657220616d6f756e7420657863656564732062604482015265616c616e636560d01b6064820152608490fd5b60405162461bcd60e51b815260206004820152602360248201527f45524332303a207472616e7366657220746f20746865207a65726f206164647260448201526265737360e81b6064820152608490fd5b60405162461bcd60e51b815260206004820152602560248201527f45524332303a207472616e736665722066726f6d20746865207a65726f206164604482015264647265737360d81b6064820152608490fd5b6001600160a01b03908116918215612a3157169182156129e15760207f8c5be1e5ebec7d5bd14f71427d1e84f3dd0314c0f7b2291e5b200ac8c7c3b925918360005260348252604060002085600052825280604060002055604051908152a3565b60405162461bcd60e51b815260206004820152602260248201527f45524332303a20617070726f766520746f20746865207a65726f206164647265604482015261737360f01b6064820152608490fd5b60405162461bcd60e51b8152602060048201526024808201527f45524332303a20617070726f76652066726f6d20746865207a65726f206164646044820152637265737360e01b6064820152608490fd5b91929015612ae45750815115612a96575090565b3b15612a9f5790565b60405162461bcd60e51b815260206004820152601d60248201527f416464726573733a2063616c6c20746f206e6f6e2d636f6e74726163740000006044820152606490fd5b825190915015612af75750805190602001fd5b60405162461bcd60e51b815260206004820152908190610cf6906024830190611f39565b908151811015612b2c570160200190565b634e487b7160e01b600052603260045260246000fd5b60405190612b4f82611f8a565b602a8252602082016040368237825115612b2c57603090538151600190811015612b2c57607860218401536029905b808211612bd2575050612b8e5790565b606460405162461bcd60e51b815260206004820152602060248201527f537472696e67733a20686578206c656e67746820696e73756666696369656e746044820152fd5b9091600f81166010811015612c2b576f181899199a1a9b1b9c1cb0b131b232b360811b901a612c018486612b1b565b5360041c918015612c16576000190190612b7e565b60246000634e487b7160e01b81526011600452fd5b60246000634e487b7160e01b81526032600452fd5b15612c4757565b60405162461bcd60e51b815260206004820152602b60248201527f496e697469616c697a61626c653a20636f6e7472616374206973206e6f74206960448201526a6e697469616c697a696e6760a81b6064820152608490fd5b6001600160a01b0316908115612cff577fddf252ad1be2c89b69c2b068fc378daa952ba7f163c4a11628f55a4df523b3ef602082612ce26000946035546127ed565b6035558484526033825260408420818154019055604051908152a3565b60405162461bcd60e51b815260206004820152601f60248201527f45524332303a206d696e7420746f20746865207a65726f2061646472657373006044820152606490fd5b60ff60c95416612d5057565b60405162461bcd60e51b815260206004820152601060248201526f14185d5cd8589b194e881c185d5cd95960821b6044820152606490fd5b600260fb5414612d9957600260fb55565b60405162461bcd60e51b815260206004820152601f60248201527f5265656e7472616e637947756172643a207265656e7472616e742063616c6c006044820152606490fd5b6001600160a01b03168015612e9a5780600052603360205260406000205491808310612e4a576020817fddf252ad1be2c89b69c2b068fc378daa952ba7f163c4a11628f55a4df523b3ef92600095858752603384520360408620558060355403603555604051908152a3565b60405162461bcd60e51b815260206004820152602260248201527f45524332303a206275726e20616d6f756e7420657863656564732062616c616e604482015261636560f01b6064820152608490fd5b60405162461bcd60e51b815260206004820152602160248201527f45524332303a206275726e2066726f6d20746865207a65726f206164647265736044820152607360f81b6064820152608490fd5b8051821015612b2c5760209160051b01019056fe2f8788117e7eff1d82e926ec794901d17c78024a50270940304540a733656f0d4a11f94e20a93c79f6ec743a1954ec4fc2c08429ae2122118bf234b2185c81b8360894a13ba1a3210667c828492db98dca3e2076cc3735a920a3ca505d382bbca2646970667358221220ea76c47eeefd551852a954488d833628962f92feb8f06a6e602a9197d84a090564736f6c63430008140033",
  "linkReferences": {},
  "deployedLinkReferences": {}
}