{
  "_format": "hh-sol-artifact-1",
  "contractName": "XcelPass",
  "sourceName": "contracts/XcelPass.sol",
  "abi": [
    {
      "inputs": [],
      "stateMutability": "nonpayable",
      "type": "constructor"
    },
    {
      "inputs": [
        {
          "internalType": "string",
          "name": "bookingId",
          "type": "string"
        }
      ],
      "name": "BookingIdAlreadyUsed",
      "type": "error"
    },
    {
      "inputs": [
        {
          "internalType": "uint256",
          "name": "tokenId",
          "type": "uint256"
        }
      ],
      "name": "InvalidTokenId",
      "type": "error"
    },
    {
      "inputs": [
        {
          "internalType": "uint256",
          "name": "tokenId",
          "type": "uint256"
        },
        {
          "internalType": "uint256",
          "name": "validUntil",
          "type": "uint256"
        }
      ],
      "name": "PassExpired",
      "type": "error"
    },
    {
      "inputs": [],
      "name": "UnauthorizedOperation",
      "type": "error"
    },
    {
      "anonymous": false,
      "inputs": [
        {
          "indexed": false,
          "internalType": "address",
          "name": "previousAdmin",
          "type": "address"
        },
        {
          "indexed": false,
          "internalType": "address",
          "name": "newAdmin",
          "type": "address"
        }
      ],
      "name": "AdminChanged",
      "type": "event"
    },
    {
      "anonymous": false,
      "inputs": [
        {
          "indexed": true,
          "internalType": "address",
          "name": "owner",
          "type": "address"
        },
        {
          "indexed": true,
          "internalType": "address",
          "name": "approved",
          "type": "address"
        },
        {
          "indexed": true,
          "internalType": "uint256",
          "name": "tokenId",
          "type": "uint256"
        }
      ],
      "name": "Approval",
      "type": "event"
    },
    {
      "anonymous": false,
      "inputs": [
        {
          "indexed": true,
          "internalType": "address",
          "name": "owner",
          "type": "address"
        },
        {
          "indexed": true,
          "internalType": "address",
          "name": "operator",
          "type": "address"
        },
        {
          "indexed": false,
          "internalType": "bool",
          "name": "approved",
          "type": "bool"
        }
      ],
      "name": "ApprovalForAll",
      "type": "event"
    },
    {
      "anonymous": false,
      "inputs": [
        {
          "indexed": true,
          "internalType": "address",
          "name": "beacon",
          "type": "address"
        }
      ],
      "name": "BeaconUpgraded",
      "type": "event"
    },
    {
      "anonymous": false,
      "inputs": [
        {
          "indexed": false,
          "internalType": "uint8",
          "name": "version",
          "type": "uint8"
        }
      ],
      "name": "Initialized",
      "type": "event"
    },
    {
      "anonymous": false,
      "inputs": [
        {
          "indexed": true,
          "internalType": "uint256",
          "name": "tokenId",
          "type": "uint256"
        },
        {
          "indexed": false,
          "internalType": "string",
          "name": "metadataURI",
          "type": "string"
        }
      ],
      "name": "MetadataUpdated",
      "type": "event"
    },
    {
      "anonymous": false,
      "inputs": [
        {
          "indexed": false,
          "internalType": "address",
          "name": "account",
          "type": "address"
        }
      ],
      "name": "Paused",
      "type": "event"
    },
    {
      "anonymous": false,
      "inputs": [
        {
          "indexed": true,
          "internalType": "uint256",
          "name": "tokenId",
          "type": "uint256"
        },
        {
          "indexed": false,
          "internalType": "string",
          "name": "perkType",
          "type": "string"
        }
      ],
      "name": "PerkRedeemed",
      "type": "event"
    },
    {
      "anonymous": false,
      "inputs": [
        {
          "indexed": true,
          "internalType": "bytes32",
          "name": "role",
          "type": "bytes32"
        },
        {
          "indexed": true,
          "internalType": "bytes32",
          "name": "previousAdminRole",
          "type": "bytes32"
        },
        {
          "indexed": true,
          "internalType": "bytes32",
          "name": "newAdminRole",
          "type": "bytes32"
        }
      ],
      "name": "RoleAdminChanged",
      "type": "event"
    },
    {
      "anonymous": false,
      "inputs": [
        {
          "indexed": true,
          "internalType": "bytes32",
          "name": "role",
          "type": "bytes32"
        },
        {
          "indexed": true,
          "internalType": "address",
          "name": "account",
          "type": "address"
        },
        {
          "indexed": true,
          "internalType": "address",
          "name": "sender",
          "type": "address"
        }
      ],
      "name": "RoleGranted",
      "type": "event"
    },
    {
      "anonymous": false,
      "inputs": [
        {
          "indexed": true,
          "internalType": "bytes32",
          "name": "role",
          "type": "bytes32"
        },
        {
          "indexed": true,
          "internalType": "address",
          "name": "account",
          "type": "address"
        },
        {
          "indexed": true,
          "internalType": "address",
          "name": "sender",
          "type": "address"
        }
      ],
      "name": "RoleRevoked",
      "type": "event"
    },
    {
      "anonymous": false,
      "inputs": [
        {
          "indexed": true,
          "internalType": "address",
          "name": "from",
          "type": "address"
        },
        {
          "indexed": true,
          "internalType": "address",
          "name": "to",
          "type": "address"
        },
        {
          "indexed": true,
          "internalType": "uint256",
          "name": "tokenId",
          "type": "uint256"
        }
      ],
      "name": "Transfer",
      "type": "event"
    },
    {
      "anonymous": false,
      "inputs": [
        {
          "indexed": false,
          "internalType": "address",
          "name": "account",
          "type": "address"
        }
      ],
      "name": "Unpaused",
      "type": "event"
    },
    {
      "anonymous": false,
      "inputs": [
        {
          "indexed": true,
          "internalType": "address",
          "name": "implementation",
          "type": "address"
        }
      ],
      "name": "Upgraded",
      "type": "event"
    },
    {
      "anonymous": false,
      "inputs": [
        {
          "indexed": true,
          "internalType": "address",
          "name": "to",
          "type": "address"
        },
        {
          "indexed": true,
          "internalType": "uint256",
          "name": "tokenId",
          "type": "uint256"
        },
        {
          "indexed": false,
          "internalType": "string",
          "name": "bookingId",
          "type": "string"
        },
        {
          "indexed": false,
          "internalType": "string",
          "name": "location",
          "type": "string"
        },
        {
          "indexed": false,
          "internalType": "string",
          "name": "perkType",
          "type": "string"
        },
        {
          "indexed": false,
          "internalType": "string",
          "name": "metadataURI",
          "type": "string"
        }
      ],
      "name": "XcelPassMinted",
      "type": "event"
    },
    {
      "inputs": [],
      "name": "ADMIN_ROLE",
      "outputs": [
        {
          "internalType": "bytes32",
          "name": "",
          "type": "bytes32"
        }
      ],
      "stateMutability": "view",
      "type": "function"
    },
    {
      "inputs": [],
      "name": "DEFAULT_ADMIN_ROLE",
      "outputs": [
        {
          "internalType": "bytes32",
          "name": "",
          "type": "bytes32"
        }
      ],
      "stateMutability": "view",
      "type": "function"
    },
    {
      "inputs": [],
      "name": "MINTER_ROLE",
      "outputs": [
        {
          "internalType": "bytes32",
          "name": "",
          "type": "bytes32"
        }
      ],
      "stateMutability": "view",
      "type": "function"
    },
    {
      "inputs": [],
      "name": "UPGRADER_ROLE",
      "outputs": [
        {
          "internalType": "bytes32",
          "name": "",
          "type": "bytes32"
        }
      ],
      "stateMutability": "view",
      "type": "function"
    },
    {
      "inputs": [
        {
          "internalType": "address",
          "name": "to",
          "type": "address"
        },
        {
          "internalType": "uint256",
          "name": "tokenId",
          "type": "uint256"
        }
      ],
      "name": "approve",
      "outputs": [],
      "stateMutability": "nonpayable",
      "type": "function"
    },
    {
      "inputs": [
        {
          "internalType": "address",
          "name": "owner",
          "type": "address"
        }
      ],
      "name": "balanceOf",
      "outputs": [
        {
          "internalType": "uint256",
          "name": "",
          "type": "uint256"
        }
      ],
      "stateMutability": "view",
      "type": "function"
    },
    {
      "inputs": [
        {
          "internalType": "uint256",
          "name": "tokenId",
          "type": "uint256"
        }
      ],
      "name": "generateMetadataJSON",
      "outputs": [
        {
          "internalType": "string",
          "name": "",
          "type": "string"
        }
      ],
      "stateMutability": "view",
      "type": "function"
    },
    {
      "inputs": [
        {
          "internalType": "uint256",
          "name": "tokenId",
          "type": "uint256"
        }
      ],
      "name": "getApproved",
      "outputs": [
        {
          "internalType": "address",
          "name": "",
          "type": "address"
        }
      ],
      "stateMutability": "view",
      "type": "function"
    },
    {
      "inputs": [
        {
          "internalType": "uint256",
          "name": "tokenId",
          "type": "uint256"
        }
      ],
      "name": "getMetadata",
      "outputs": [
        {
          "components": [
            {
              "internalType": "string",
              "name": "bookingId",
              "type": "string"
            },
            {
              "internalType": "string",
              "name": "location",
              "type": "string"
            },
            {
              "internalType": "string",
              "name": "perkType",
              "type": "string"
            },
            {
              "internalType": "uint256",
              "name": "validUntil",
              "type": "uint256"
            },
            {
              "internalType": "string",
              "name": "metadataURI",
              "type": "string"
            },
            {
              "internalType": "uint256",
              "name": "mintedAt",
              "type": "uint256"
            }
          ],
          "internalType": "struct XcelPass.XcelPassMetadata",
          "name": "",
          "type": "tuple"
        }
      ],
      "stateMutability": "view",
      "type": "function"
    },
    {
      "inputs": [
        {
          "internalType": "bytes32",
          "name": "role",
          "type": "bytes32"
        }
      ],
      "name": "getRoleAdmin",
      "outputs": [
        {
          "internalType": "bytes32",
          "name": "",
          "type": "bytes32"
        }
      ],
      "stateMutability": "view",
      "type": "function"
    },
    {
      "inputs": [
        {
          "internalType": "address",
          "name": "owner",
          "type": "address"
        }
      ],
      "name": "getTokensByOwner",
      "outputs": [
        {
          "internalType": "uint256[]",
          "name": "",
          "type": "uint256[]"
        }
      ],
      "stateMutability": "view",
      "type": "function"
    },
    {
      "inputs": [
        {
          "internalType": "address",
          "name": "owner",
          "type": "address"
        }
      ],
      "name": "getValidTokensByOwner",
      "outputs": [
        {
          "internalType": "uint256[]",
          "name": "",
          "type": "uint256[]"
        }
      ],
      "stateMutability": "view",
      "type": "function"
    },
    {
      "inputs": [
        {
          "internalType": "bytes32",
          "name": "role",
          "type": "bytes32"
        },
        {
          "internalType": "address",
          "name": "account",
          "type": "address"
        }
      ],
      "name": "grantRole",
      "outputs": [],
      "stateMutability": "nonpayable",
      "type": "function"
    },
    {
      "inputs": [
        {
          "internalType": "bytes32",
          "name": "role",
          "type": "bytes32"
        },
        {
          "internalType": "address",
          "name": "account",
          "type": "address"
        }
      ],
      "name": "hasRole",
      "outputs": [
        {
          "internalType": "bool",
          "name": "",
          "type": "bool"
        }
      ],
      "stateMutability": "view",
      "type": "function"
    },
    {
      "inputs": [
        {
          "internalType": "string",
          "name": "name",
          "type": "string"
        },
        {
          "internalType": "string",
          "name": "symbol",
          "type": "string"
        },
        {
          "internalType": "string",
          "name": "baseTokenURI",
          "type": "string"
        },
        {
          "internalType": "address",
          "name": "admin",
          "type": "address"
        }
      ],
      "name": "initialize",
      "outputs": [],
      "stateMutability": "nonpayable",
      "type": "function"
    },
    {
      "inputs": [
        {
          "internalType": "address",
          "name": "owner",
          "type": "address"
        },
        {
          "internalType": "address",
          "name": "operator",
          "type": "address"
        }
      ],
      "name": "isApprovedForAll",
      "outputs": [
        {
          "internalType": "bool",
          "name": "",
          "type": "bool"
        }
      ],
      "stateMutability": "view",
      "type": "function"
    },
    {
      "inputs": [
        {
          "internalType": "uint256",
          "name": "tokenId",
          "type": "uint256"
        }
      ],
      "name": "isPassValid",
      "outputs": [
        {
          "internalType": "bool",
          "name": "",
          "type": "bool"
        }
      ],
      "stateMutability": "view",
      "type": "function"
    },
    {
      "inputs": [
        {
          "internalType": "address",
          "name": "to",
          "type": "address"
        },
        {
          "internalType": "string",
          "name": "bookingId",
          "type": "string"
        },
        {
          "internalType": "string",
          "name": "location",
          "type": "string"
        },
        {
          "internalType": "string",
          "name": "perkType",
          "type": "string"
        },
        {
          "internalType": "uint256",
          "name": "validUntil",
          "type": "uint256"
        },
        {
          "internalType": "string",
          "name": "metadataURI",
          "type": "string"
        }
      ],
      "name": "mint",
      "outputs": [],
      "stateMutability": "nonpayable",
      "type": "function"
    },
    {
      "inputs": [],
      "name": "name",
      "outputs": [
        {
          "internalType": "string",
          "name": "",
          "type": "string"
        }
      ],
      "stateMutability": "view",
      "type": "function"
    },
    {
      "inputs": [
        {
          "internalType": "uint256",
          "name": "tokenId",
          "type": "uint256"
        }
      ],
      "name": "ownerOf",
      "outputs": [
        {
          "internalType": "address",
          "name": "",
          "type": "address"
        }
      ],
      "stateMutability": "view",
      "type": "function"
    },
    {
      "inputs": [],
      "name": "pause",
      "outputs": [],
      "stateMutability": "nonpayable",
      "type": "function"
    },
    {
      "inputs": [],
      "name": "paused",
      "outputs": [
        {
          "internalType": "bool",
          "name": "",
          "type": "bool"
        }
      ],
      "stateMutability": "view",
      "type": "function"
    },
    {
      "inputs": [],
      "name": "proxiableUUID",
      "outputs": [
        {
          "internalType": "bytes32",
          "name": "",
          "type": "bytes32"
        }
      ],
      "stateMutability": "view",
      "type": "function"
    },
    {
      "inputs": [
        {
          "internalType": "uint256",
          "name": "tokenId",
          "type": "uint256"
        }
      ],
      "name": "redeemPerk",
      "outputs": [],
      "stateMutability": "nonpayable",
      "type": "function"
    },
    {
      "inputs": [
        {
          "internalType": "bytes32",
          "name": "role",
          "type": "bytes32"
        },
        {
          "internalType": "address",
          "name": "account",
          "type": "address"
        }
      ],
      "name": "renounceRole",
      "outputs": [],
      "stateMutability": "nonpayable",
      "type": "function"
    },
    {
      "inputs": [
        {
          "internalType": "bytes32",
          "name": "role",
          "type": "bytes32"
        },
        {
          "internalType": "address",
          "name": "account",
          "type": "address"
        }
      ],
      "name": "revokeRole",
      "outputs": [],
      "stateMutability": "nonpayable",
      "type": "function"
    },
    {
      "inputs": [
        {
          "internalType": "address",
          "name": "from",
          "type": "address"
        },
        {
          "internalType": "address",
          "name": "to",
          "type": "address"
        },
        {
          "internalType": "uint256",
          "name": "tokenId",
          "type": "uint256"
        }
      ],
      "name": "safeTransferFrom",
      "outputs": [],
      "stateMutability": "nonpayable",
      "type": "function"
    },
    {
      "inputs": [
        {
          "internalType": "address",
          "name": "from",
          "type": "address"
        },
        {
          "internalType": "address",
          "name": "to",
          "type": "address"
        },
        {
          "internalType": "uint256",
          "name": "tokenId",
          "type": "uint256"
        },
        {
          "internalType": "bytes",
          "name": "data",
          "type": "bytes"
        }
      ],
      "name": "safeTransferFrom",
      "outputs": [],
      "stateMutability": "nonpayable",
      "type": "function"
    },
    {
      "inputs": [
        {
          "internalType": "address",
          "name": "operator",
          "type": "address"
        },
        {
          "internalType": "bool",
          "name": "approved",
          "type": "bool"
        }
      ],
      "name": "setApprovalForAll",
      "outputs": [],
      "stateMutability": "nonpayable",
      "type": "function"
    },
    {
      "inputs": [
        {
          "internalType": "bytes4",
          "name": "interfaceId",
          "type": "bytes4"
        }
      ],
      "name": "supportsInterface",
      "outputs": [
        {
          "internalType": "bool",
          "name": "",
          "type": "bool"
        }
      ],
      "stateMutability": "view",
      "type": "function"
    },
    {
      "inputs": [],
      "name": "symbol",
      "outputs": [
        {
          "internalType": "string",
          "name": "",
          "type": "string"
        }
      ],
      "stateMutability": "view",
      "type": "function"
    },
    {
      "inputs": [
        {
          "internalType": "uint256",
          "name": "",
          "type": "uint256"
        }
      ],
      "name": "tokenMetadata",
      "outputs": [
        {
          "internalType": "string",
          "name": "bookingId",
          "type": "string"
        },
        {
          "internalType": "string",
          "name": "location",
          "type": "string"
        },
        {
          "internalType": "string",
          "name": "perkType",
          "type": "string"
        },
        {
          "internalType": "uint256",
          "name": "validUntil",
          "type": "uint256"
        },
        {
          "internalType": "string",
          "name": "metadataURI",
          "type": "string"
        },
        {
          "internalType": "uint256",
          "name": "mintedAt",
          "type": "uint256"
        }
      ],
      "stateMutability": "view",
      "type": "function"
    },
    {
      "inputs": [
        {
          "internalType": "uint256",
          "name": "tokenId",
          "type": "uint256"
        }
      ],
      "name": "tokenURI",
      "outputs": [
        {
          "internalType": "string",
          "name": "",
          "type": "string"
        }
      ],
      "stateMutability": "view",
      "type": "function"
    },
    {
      "inputs": [
        {
          "internalType": "address",
          "name": "from",
          "type": "address"
        },
        {
          "internalType": "address",
          "name": "to",
          "type": "address"
        },
        {
          "internalType": "uint256",
          "name": "tokenId",
          "type": "uint256"
        }
      ],
      "name": "transferFrom",
      "outputs": [],
      "stateMutability": "nonpayable",
      "type": "function"
    },
    {
      "inputs": [],
      "name": "unpause",
      "outputs": [],
      "stateMutability": "nonpayable",
      "type": "function"
    },
    {
      "inputs": [
        {
          "internalType": "uint256",
          "name": "tokenId",
          "type": "uint256"
        },
        {
          "internalType": "string",
          "name": "metadataURI",
          "type": "string"
        }
      ],
      "name": "updateMetadata",
      "outputs": [],
      "stateMutability": "nonpayable",
      "type": "function"
    },
    {
      "inputs": [
        {
          "internalType": "address",
          "name": "newImplementation",
          "type": "address"
        }
      ],
      "name": "upgradeTo",
      "outputs": [],
      "stateMutability": "nonpayable",
      "type": "function"
    },
    {
      "inputs": [
        {
          "internalType": "address",
          "name": "newImplementation",
          "type": "address"
        },
        {
          "internalType": "bytes",
          "name": "data",
          "type": "bytes"
        }
      ],
      "name": "upgradeToAndCall",
      "outputs": [],
      "stateMutability": "payable",
      "type": "function"
    },
    {
      "inputs": [
        {
          "internalType": "string",
          "name": "",
          "type": "string"
        }
      ],
      "name": "usedBookingIds",
      "outputs": [
        {
          "internalType": "bool",
          "name": "",
          "type": "bool"
        }
      ],
      "stateMutability": "view",
      "type": "function"
    }
  ],
  "bytecode": "0x60a08060405234620000e157306080526000549060ff8260081c166200008f575060ff8082160362000053575b6040516143069081620000e782396080518181816118930152818161198201526125560152f35b60ff90811916176000557f7f26b83ff96e1f2b6a682f133852f6798a09c465da95921460cefb3847402498602060405160ff8152a1386200002c565b62461bcd60e51b815260206004820152602760248201527f496e697469616c697a61626c653a20636f6e747261637420697320696e697469604482015266616c697a696e6760c81b6064820152608490fd5b600080fdfe608080604052600436101561001357600080fd5b60003560e01c90816301ffc9a714612c7a5750806306fdde0314612be6578063081812fc14612bc857806309286ccc14612ac3578063095ea7b31461294957806323b872dd14612925578063248a9ca3146128f65780632b3c582e146128215780632f2ff15d1461278057806336568abe146126ee5780633659cfe6146125315780633f4ba83a1461249d57806340398d671461246d57806342842e0e1461243a57806348c6195d146124125780634912e65d14611bc75780634f1ef2861461194457806352d1902d1461188057806353c8388e1461169a5780635c6d8da114610e6c5780635c975abb14610e495780636352211e14610e195780636914db6014610d3b57806370a0823114610d1057806375b238fc14610cd55780638456cb5914610c7b57806391d1485414610c2e57806395d89b4114610b5e578063a217fddf14610b42578063a22cb46514610a70578063a574cea414610917578063b56dab8d146108b5578063b88d4fde14610841578063bcf822651461034f578063c87b56dd146102de578063d5391393146102a3578063d547741f14610262578063e985e9c51461020c5763f72c0d8b146101cc57600080fd5b346102075760003660031901126102075760206040517f189ab7a9244df0848122154315af71fe140f3db0fe014031783b0946b8c9d2e38152f35b600080fd5b3461020757604036600319011261020757610225612d47565b61022d612d5d565b9060018060a01b03809116600052606a60205260406000209116600052602052602060ff604060002054166040519015158152f35b34610207576040366003190112610207576102a1600435610281612d5d565b9080600052609760205261029c60016040600020015461345e565b613569565b005b346102075760003660031901126102075760206040517f9f2df0fed2c77648de5860a4cc508cd0818c85b8b8a1ab4ceeef8d981c8956a68152f35b3461020757602036600319011261020757600435600090815260676020526040902054610315906001600160a01b031615156137a8565b600060405161032381612dfe565b5261034b60405161033381612dfe565b60008152604051918291602083526020830190612d22565b0390f35b34610207576020806003193601126102075761049e906004358060005261019182526040600020906040519061038482612de3565b60405161039c816103958187612f27565b0382612e6a565b82526040516001936103bb826103b481888501612f27565b0383612e6a565b858401918252604051906103d6826103b48160028501612f27565b60408501918252600560038201549160608701928352604051610400816103958160048601612f27565b608088015201549260a086019384528761041986613fbf565b9682519061044961044361043c61042f8b613fbf565b9351965198519751613fbf565b9851613fbf565b98613f84565b1561081e5760405161045a81612e34565b60048152637472756560e01b84820152995b604051727b226e616d65223a225863656c50617373202360681b858201528a51909d8e9b829060338e01908801612cff565b8a019261088b60f21b938460338201527f226465736372697074696f6e223a225863656c4c696e6b2074726176656c2070603582015267030b9b9903337b9160c51b60558201526104f88251809388605d85019101612cff565b0192605d840152681134b6b0b3b2911d1160b91b605f8401526000926101949182549261052484612eed565b938281169081156107ef575060011461078a575b50505050918161055a8460f49b9a9896946107769d9a98965194859201612cff565b650b9c1b99c88b60d21b91019081526d2261747472696275746573223a5b60901b60068201527f7b2274726169745f74797065223a22426f6f6b696e67204944222c2276616c7560148201526332911d1160e11b60348201528151916105c890839060388401908e01612cff565b019162089f4b60ea1b928360388201527f7b2274726169745f74797065223a224c6f636174696f6e222c2276616c756522603b820152611d1160f11b605b82015261061c825180938d605d85019101612cff565b0182605d8201527f7b2274726169745f74797065223a225065726b2054797065222c2276616c7565606082015262111d1160e91b6080820152610668825180938c608385019101612cff565b019060838201527f7b2274726169745f74797065223a2256616c696420556e74696c222c2276616c6086820152633ab2911d60e11b60a68201526106b5825180938a60aa85019101612cff565b0190611f4b60f21b918260aa8201527f7b2274726169745f74797065223a224d696e746564204174222c2276616c756560ac82015261111d60f11b60cc820152610708825180938a60ce85019101612cff565b019060ce8201527f7b2274726169745f74797065223a2249732056616c6964222c2276616c75652260d0820152601d60f91b60f0820152610752825180938860f185019101612cff565b01607d60f81b60f1820152615d7d60f01b60f28201520360d4810185520183612e6a565b61034b604051928284938452830190612d22565b9091929394506000527fa6f1ac7ad7b125ba5a5e1c96b00ad6914f90a503b1ac3d85a9dadbb4c639df92906000915b8483106107d65750505001606801908061055a60f4610776610538565b8054606885850101528f9c508e969092019181016107b9565b60ff1916606885810191909152851515909502909301909301945083925061055a915060f49050610776610538565b60405161082a81612e34565b600581526466616c736560d81b848201529961046c565b346102075760803660031901126102075761085a612d47565b610862612d5d565b90606435906044356001600160401b038311610207576102a19361088d6108b0943690600401612ea6565b926108a061089b843361392d565b613858565b6108ab8383836139f5565b613c33565b61390d565b34610207576020366003190112610207576004356001600160401b0381116102075760ff61090060206108ed81943690600401612ea6565b8160405193828580945193849201612cff565b810161019281520301902054166040519015158152f35b3461020757602080600319360112610207576040519061093682612de3565b600060a06060938481528484820152846040820152828582015284608082015201526004356000526101918152604060002091610a656040519361097985612de3565b60405161098a816103958185612f27565b85526040516109a0816103958160018601612f27565b848601908152604051916109c2836109bb8160028501612f27565b0384612e6a565b60408701928352610a4e6003820154938689019485526005604051936109f6856109ef8160048501612f27565b0386612e6a565b60808b0194855201549660a08a01978852610a3d610a278a60c06040519d8e9d8e5251918d015260e08c0190612d22565b955195601f1996878c83030160408d0152612d22565b915190858a840301908a0152612d22565b9251608087015251908583030160a0860152612d22565b905160c08301520390f35b3461020757604036600319011261020757610a89612d47565b60243590811515809203610207576001600160a01b031690338214610afd5733600052606a602052604060002082600052602052604060002060ff1981541660ff83161790556040519081527f17307eab39ab6107e8899845ad3d59bd9653f200f220920489ca2b5937696c3160203392a3005b60405162461bcd60e51b815260206004820152601960248201527f4552433732313a20617070726f766520746f2063616c6c6572000000000000006044820152606490fd5b3461020757600036600319011261020757602060405160008152f35b34610207576000366003190112610207576040516000606654610b8081612eed565b80845290600190818116908115610c075750600114610bbe575b61034b84610baa81860382612e6a565b604051918291602083526020830190612d22565b6066600090815292506000805160206142518339815191525b828410610bef575050508101602001610baa82610b9a565b80546020858701810191909152909301928101610bd7565b60ff191660208087019190915292151560051b85019092019250610baa9150839050610b9a565b3461020757604036600319011261020757610c47612d5d565b600435600052609760205260406000209060018060a01b0316600052602052602060ff604060002054166040519015158152f35b3461020757600036600319011261020757610c946131d4565b610c9c613ef4565b600160ff1960c954161760c9557f62e78cea01bee320cd4e420270b5ea74000d11b0c9f74754ebdbfc544b05a2586020604051338152a1005b346102075760003660031901126102075760206040517fa49807205ce4d355092ef5a8a18f56e8913cf4a201fbe287825b095693c217758152f35b34610207576020366003190112610207576020610d33610d2e612d47565b613731565b604051908152f35b3461020757602036600319011261020757600435600052610191602052610de0604060002060405190610d72826103b48184612f27565b610e0f60405191610d8a836109bb8160018501612f27565b60405190610d9f826103b48160028501612f27565b610dfc600382015492610dee600560405194610dc986610dc28160048501612f27565b0387612e6a565b015496604051998a9960c08b5260c08b0190612d22565b9089820360208b0152612d22565b908782036040890152612d22565b9160608601528482036080860152612d22565b9060a08301520390f35b34610207576020366003190112610207576020610e376004356137f4565b6040516001600160a01b039091168152f35b3461020757600036600319011261020757602060ff60c954166040519015158152f35b34610207576080366003190112610207576004356001600160401b03811161020757610e9c903690600401612ea6565b6024356001600160401b03811161020757610ebb903690600401612ea6565b906044356001600160401b03811161020757610edb903690600401612ea6565b906064356001600160a01b0381168103610207576000549160ff8360081c16159283809461168d575b8015611676575b1561161a5760ff19811660011760005583611608575b50610f3c60ff60005460081c16610f3781613e6f565b613e6f565b8051906001600160401b03821161140e578190610f5a606554612eed565b601f8111611591575b50602090601f83116001146115195760009261150e575b50508160011b916000199060031b1c1916176065555b83516001600160401b03811161140e57610fab606654612eed565b601f81116114a1575b50602094601f821160011461142f57948192939495600092611424575b50508160011b916000199060031b1c1916176066555b61103460ff60005460081c16610ffc81613e6f565b61100581613e6f565b61100e81613e6f565b60ff1960c9541660c95561102181613e6f565b61102a81613e6f565b600160fb55613e6f565b82516001600160401b03811161140e57610194906110528254612eed565b601f81116113aa575b50602094601f82116001146113285794819293949560009261131d575b50508160011b916000199060031b1c19161790555b6001610193556001600160a01b03811660009081527f683723e34a772b6e4f2c919bba7fa32ed8ea11a8325f54da7db716e9d9dd98c7602052604090205460979060ff16156112d9575b7fa49807205ce4d355092ef5a8a18f56e8913cf4a201fbe287825b095693c217756000818152602083815260408083206001600160a01b038716845290915290205460ff1615611292575b507f9f2df0fed2c77648de5860a4cc508cd0818c85b8b8a1ab4ceeef8d981c8956a66000818152602083815260408083206001600160a01b038716845290915290205460ff161561124b575b507f189ab7a9244df0848122154315af71fe140f3db0fe014031783b0946b8c9d2e3908160005280602052604060002060018060a01b03841660005260205260ff60406000205416156111fd575b5050506111c557005b61ff0019600054166000557f7f26b83ff96e1f2b6a682f133852f6798a09c465da95921460cefb3847402498602060405160018152a1005b6000828152602091825260408082206001600160a01b039590951680835294909252908120805460ff19166001179055339291906000805160206142718339815191529080a48180806111bc565b6000818152602083815260408083206001600160a01b03871680855292528220805460ff19166001179055339290916000805160206142718339815191529080a48361116e565b6000818152602083815260408083206001600160a01b03871680855292528220805460ff19166001179055339290916000805160206142718339815191529080a483611122565b6000808052602082815260408083206001600160a01b03861680855292528220805460ff1916600117905533916000805160206142718339815191528180a46110d7565b015190508580611078565b601f19821695836000527fa6f1ac7ad7b125ba5a5e1c96b00ad6914f90a503b1ac3d85a9dadbb4c639df929160005b88811061139257508360019596979810611379575b505050811b01905561108d565b015160001960f88460031b161c1916905585808061136c565b91926020600181928685015181550194019201611357565b826000527fa6f1ac7ad7b125ba5a5e1c96b00ad6914f90a503b1ac3d85a9dadbb4c639df92601f830160051c81019160208410611404575b601f0160051c01905b8181106113f8575061105b565b600081556001016113eb565b90915081906113e2565b634e487b7160e01b600052604160045260246000fd5b015190508580610fd1565b601f1982169560666000526000805160206142518339815191529160005b88811061148957508360019596979810611470575b505050811b01606655610fe7565b015160001960f88460031b161c19169055858080611462565b9192602060018192868501518155019401920161144d565b6066600052601f820160051c6000805160206142518339815191520190602083106114f8575b601f0160051c60008051602061425183398151915201905b8181106114ec5750610fb4565b600081556001016114df565b60008051602061425183398151915291506114c7565b015190508680610f7a565b92506065600052600080516020614291833981519152906000935b601f1984168510611576576001945083601f1981161061155d575b505050811b01606555610f90565b015160001960f88460031b161c1916905586808061154f565b81810151835560209485019460019093019290910190611534565b9091506065600052601f830160051c6000805160206142918339815191520190602084106115f2575b90601f8493920160051c60008051602061429183398151915201905b8181106115e35750610f63565b600081558493506001016115d6565b60008051602061429183398151915291506115ba565b61ffff19166101011760005585610f21565b60405162461bcd60e51b815260206004820152602e60248201527f496e697469616c697a61626c653a20636f6e747261637420697320616c72656160448201526d191e481a5b9a5d1a585b1a5e995960921b6064820152608490fd5b50303b158015610f0b5750600160ff821614610f0b565b50600160ff821610610f04565b34610207576040366003190112610207576001600160401b03600435602435828111610207576116ce903690600401612ea6565b6116d6613319565b6116de613ef4565b6000828152606760205260409020546001600160a01b0316156118675781600052602061019181526004604060002001825194851161140e576117218154612eed565b601f8111611821575b5081601f861160011461179c5794807f459157ba24c7ab9878b165ef465fa6ae2ab42bcd8445f576be378768b0c473099596600091611791575b508160011b916000199060031b1c19161790555b61178c604051928284938452830190612d22565b0390a2005b905084015187611764565b601f1986169082600052836000209160005b81811061180a57509187917f459157ba24c7ab9878b165ef465fa6ae2ab42bcd8445f576be378768b0c473099798600194106117f1575b5050811b019055611778565b86015160001960f88460031b161c1916905587806117e5565b91928560018192868a0151815501940192016117ae565b8160005282600020601f870160051c81019184881061185d575b601f0160051c01905b818110611851575061172a565b60008155600101611844565b909150819061183b565b60405163ed15e6cf60e01b815260048101839052602490fd5b34610207576000366003190112610207577f00000000000000000000000000000000000000000000000000000000000000006001600160a01b031630036118d95760206040516000805160206142b18339815191528152f35b60405162461bcd60e51b815260206004820152603860248201527f555550535570677261646561626c653a206d757374206e6f742062652063616c60448201527f6c6564207468726f7567682064656c656761746563616c6c00000000000000006064820152608490fd5b604036600319011261020757611958612d47565b6024356001600160401b03811161020757611977903690600401612ea6565b906001600160a01b037f00000000000000000000000000000000000000000000000000000000000000008116906119b0308314156135df565b6119cd6000805160206142b1833981519152928284541614613640565b6119d5612fbd565b7f4910fdfa16fed3260ed0e7147f7cc6da11a60208b5b9406d12a635614ffd91435460ff1615611a0b5750506102a191506136a1565b6040516352d1902d60e01b81526020939291831691908481600481865afa60009181611b98575b50611a935760405162461bcd60e51b815260048101869052602e60248201527f45524331393637557067726164653a206e657720696d706c656d656e7461746960448201526d6f6e206973206e6f74205555505360901b6064820152608490fd5b03611b4157611aa1826136a1565b7fbc7cd75a20ee27fd9adebab32041f755214dbc6bffa90cc0225b39da2e5c2d3b600080a2825115801590611b39575b611ad757005b6000806102a19460405194611aeb86612e19565b602786527f416464726573733a206c6f772d6c6576656c2064656c65676174652063616c6c81870152660819985a5b195960ca1b604087015281519101845af4611b33613b0b565b91613cb1565b506001611ad1565b60405162461bcd60e51b815260048101849052602960248201527f45524331393637557067726164653a20756e737570706f727465642070726f786044820152681a58589b195555525160ba1b6064820152608490fd5b9091508581813d8311611bc0575b611bb08183612e6a565b8101031261020757519087611a32565b503d611ba6565b346102075760c036600319011261020757611be0612d47565b6024356001600160401b03811161020757611bff903690600401612ea6565b906044356001600160401b03811161020757611c1f903690600401612ea6565b916064356001600160401b03811161020757611c3f903690600401612ea6565b9160a4356001600160401b03811161020757611c5f903690600401612ea6565b92611c68613319565b611c70613ef4565b600260fb54146123cd57600260fb5560ff6040516020818651611c968183858b01612cff565b810161019281520301902054166123a75761019394855495611cb787613ecf565b9055604051611cc581612dfe565b600081526001600160a01b0384161561236357600087815260676020526040902054611d92916108b091611d05906001600160a01b031615155b15613f38565b600089815260676020526040902054611d28906001600160a01b03161515611cff565b6001600160a01b0386166000818152606860209081526040808320805460010190558c83526067909152812080546001600160a01b031916831790558a91907fddf252ad1be2c89b69c2b068fc378daa952ba7f163c4a11628f55a4df523b3ef8180a48886613b3b565b6040516020818651611da78183858b01612cff565b8101610192815203019020600160ff19825416179055604051611dc981612de3565b84815281602082015282604082015260843560608201528560808201524260a08201528660005261019160205260406000209080518051906001600160401b03821161140e578190611e1b8554612eed565b601f8111612313575b50602090601f83116001146122a75760009261229c575b50508160011b916000199060031b1c19161782555b60208101518051906001600160401b03821161140e578190611e756001860154612eed565b601f8111612249575b50602090601f83116001146121d7576000926121cc575b50508160011b916000199060031b1c19161760018301555b60408101518051906001600160401b03821161140e578190611ed26002860154612eed565b601f8111612179575b50602090601f8311600114612107576000926120fc575b50508160011b916000199060031b1c19161760028301555b6060810151600383015560808101518051906001600160401b03821161140e57611f376004850154612eed565b601f81116120b5575b50602090601f831160011461200d5794611fc39794600560a0611fdf96867fa41a27a0ffc5c37d1f4daa8570b8f412fb7bbd7e6e592f259dcb8e8435936d4d9d9b97611fd197611ff89c600092612002575b50508160011b916000199060031b1c19161760048501555b0151910155604051978897608089526080890190612d22565b908782036020890152612d22565b908582036040870152612d22565b83810360608501526001600160a01b0390911695612d22565b0390a3600160fb55005b015190503880611f92565b906004850160005260206000209160005b601f198516811061209d575094600560a0611fdf96600187611fd1977fa41a27a0ffc5c37d1f4daa8570b8f412fb7bbd7e6e592f259dcb8e8435936d4d9f9d9997611fc39f9c611ff89e99601f19811610612084575b505050811b016004850155611faa565b015160001960f88460031b161c19169055388080612074565b9192602060018192868501518155019401920161201e565b600485016000526020600020601f840160051c8101602085106120f5575b601f830160051c820181106120e9575050611f40565b600081556001016120d3565b50806120d3565b015190508a80611ef2565b9250600285016000526020600020906000935b601f198416851061215e576001945083601f19811610612145575b505050811b016002830155611f0a565b015160001960f88460031b161c191690558a8080612135565b8181015183556020948501946001909301929091019061211a565b909150600285016000526020600020601f840160051c8101602085106121c5575b90849392915b601f830160051c820181106121b6575050611edb565b600081558594506001016121a0565b508061219a565b015190508a80611e95565b9250600185016000526020600020906000935b601f198416851061222e576001945083601f19811610612215575b505050811b016001830155611ead565b015160001960f88460031b161c191690558a8080612205565b818101518355602094850194600190930192909101906121ea565b909150600185016000526020600020601f840160051c810160208510612295575b90849392915b601f830160051c82018110612286575050611e7e565b60008155859450600101612270565b508061226a565b015190508a80611e3b565b9250846000526020600020906000935b601f19841685106122f8576001945083601f198116106122df575b505050811b018255611e50565b015160001960f88460031b161c191690558a80806122d2565b818101518355602094850194600190930192909101906122b7565b909150846000526020600020601f840160051c81016020851061235c575b90849392915b601f830160051c8201811061234d575050611e24565b60008155859450600101612337565b5080612331565b606460405162461bcd60e51b815260206004820152602060248201527f4552433732313a206d696e7420746f20746865207a65726f20616464726573736044820152fd5b60405163793b752160e11b815260206004820152806123c96024820186612d22565b0390fd5b60405162461bcd60e51b815260206004820152601f60248201527f5265656e7472616e637947756172643a207265656e7472616e742063616c6c006044820152606490fd5b34610207576020366003190112610207576020612430600435613f84565b6040519015158152f35b34610207576102a16108b061244e36612d73565b906040519261245c84612dfe565b600084526108a061089b843361392d565b346102075760203660031901126102075761034b61249161248c612d47565b614184565b60405191829182612da8565b34610207576000366003190112610207576124b66131d4565b60c95460ff8116156124f55760ff191660c9557f5db9ee0a495bf2e6ff9c91a7834c1ba4fdd244a5e8aa4e537bd38aeae4b073aa6020604051338152a1005b60405162461bcd60e51b815260206004820152601460248201527314185d5cd8589b194e881b9bdd081c185d5cd95960621b6044820152606490fd5b34610207576020806003193601126102075761254b612d47565b6001600160a01b03917f00000000000000000000000000000000000000000000000000000000000000008316612583308214156135df565b6125a06000805160206142b1833981519152918583541614613640565b6125a8612fbd565b604051936125b585612dfe565b600085527f4910fdfa16fed3260ed0e7147f7cc6da11a60208b5b9406d12a635614ffd91435460ff16156125f0575050506102a191506136a1565b83929316906040516352d1902d60e01b81528481600481865afa600091816126bf575b506126745760405162461bcd60e51b815260048101869052602e60248201527f45524331393637557067726164653a206e657720696d706c656d656e7461746960448201526d6f6e206973206e6f74205555505360901b6064820152608490fd5b03611b4157612682826136a1565b7fbc7cd75a20ee27fd9adebab32041f755214dbc6bffa90cc0225b39da2e5c2d3b600080a28251158015906126b757611ad757005b506000611ad1565b9091508581813d83116126e7575b6126d78183612e6a565b8101031261020757519087612613565b503d6126cd565b3461020757604036600319011261020757612707612d5d565b336001600160a01b03821603612723576102a190600435613569565b60405162461bcd60e51b815260206004820152602f60248201527f416363657373436f6e74726f6c3a2063616e206f6e6c792072656e6f756e636560448201526e103937b632b9903337b91039b2b63360891b6064820152608490fd5b346102075760403660031901126102075760043561279c612d5d565b8160005260976020526127b660016040600020015461345e565b81600052609760205260406000209060018060a01b0316908160005260205260ff60406000205416156127e557005b8160005260976020526040600020816000526020526040600020600160ff198254161790553391600080516020614271833981519152600080a4005b346102075760203660031901126102075761283d61248c612d47565b6000805b82518110156128855761285d6128578285614170565b51613f84565b612870575b61286b90613ecf565b612841565b9061287d61286b91613ecf565b919050612862565b5061288f9061413e565b906000805b82518110156128e8576128aa6128578285614170565b6128bd575b6128b890613ecf565b612894565b906128e06128b8916128cf8486614170565b516128da8288614170565b52613ecf565b9190506128af565b6040518061034b8682612da8565b346102075760203660031901126102075760043560005260976020526020600160406000200154604051908152f35b34610207576102a161293636612d73565b9161294461089b843361392d565b6139f5565b3461020757604036600319011261020757612962612d47565b602435906001600160a01b038080612979856137f4565b16921691808314612a7457803314908115612a4f575b50156129e457600083815260696020526040902080546001600160a01b031916831790556129bc836137f4565b167f8c5be1e5ebec7d5bd14f71427d1e84f3dd0314c0f7b2291e5b200ac8c7c3b925600080a4005b60405162461bcd60e51b815260206004820152603d60248201527f4552433732313a20617070726f76652063616c6c6572206973206e6f7420746f60448201527f6b656e206f776e6572206f7220617070726f76656420666f7220616c6c0000006064820152608490fd5b9050600052606a60205260406000203360005260205260ff604060002054168461298f565b60405162461bcd60e51b815260206004820152602160248201527f4552433732313a20617070726f76616c20746f2063757272656e74206f776e656044820152603960f91b6064820152608490fd5b3461020757602036600319011261020757600435612adf613ef4565b6000818152606760205260409020546001600160a01b031615612bb057612b0581613f84565b15612b8057612b13816137f4565b336001600160a01b0390911603612b6e57806000526101916020527fd89953d932203a9e64ed381f1088ebc108c08a82c061e932f477f64ce1452fcb61178c6002604060002001604051918291602083526020830190612f27565b604051635ee8231160e01b8152600490fd5b806044916000526101916020526003604060002001546040519163e540d53760e01b835260048301526024820152fd5b6024906040519063ed15e6cf60e01b82526004820152fd5b34610207576020366003190112610207576020610e3760043561381a565b34610207576000366003190112610207576040516000606554612c0881612eed565b80845290600190818116908115610c075750600114612c315761034b84610baa81860382612e6a565b6065600090815292506000805160206142918339815191525b828410612c62575050508101602001610baa82610b9a565b80546020858701810191909152909301928101612c4a565b34610207576020366003190112610207576004359063ffffffff60e01b821680920361020757602091637965db0b60e01b8114908115612cbc575b5015158152f35b6380ac58cd60e01b811491508115612cee575b8115612cdd575b5083612cb5565b6301ffc9a760e01b14905083612cd6565b635b5e139f60e01b81149150612ccf565b60005b838110612d125750506000910152565b8181015183820152602001612d02565b90602091612d3b81518092818552858086019101612cff565b601f01601f1916010190565b600435906001600160a01b038216820361020757565b602435906001600160a01b038216820361020757565b6060906003190112610207576001600160a01b0390600435828116810361020757916024359081168103610207579060443590565b6020908160408183019282815285518094520193019160005b828110612dcf575050505090565b835185529381019392810192600101612dc1565b60c081019081106001600160401b0382111761140e57604052565b602081019081106001600160401b0382111761140e57604052565b606081019081106001600160401b0382111761140e57604052565b604081019081106001600160401b0382111761140e57604052565b608081019081106001600160401b0382111761140e57604052565b90601f801991011681019081106001600160401b0382111761140e57604052565b6001600160401b03811161140e57601f01601f191660200190565b81601f8201121561020757803590612ebd82612e8b565b92612ecb6040519485612e6a565b8284526020838301011161020757816000926020809301838601378301015290565b90600182811c92168015612f1d575b6020831014612f0757565b634e487b7160e01b600052602260045260246000fd5b91607f1691612efc565b9060009291805491612f3883612eed565b918282526001938481169081600014612f9a5750600114612f5a575b50505050565b90919394506000526020928360002092846000945b838610612f86575050505001019038808080612f54565b805485870183015294019385908201612f6f565b9294505050602093945060ff191683830152151560051b01019038808080612f54565b3360009081527f75ef4a815c49ed748e152e890233829acb868956b95bda132b61406c3628008c602090815260408083205490927f189ab7a9244df0848122154315af71fe140f3db0fe014031783b0946b8c9d2e39160ff16156130215750505050565b61302a33613d71565b9184519061303782612e4f565b604282528482019260603685378251156131c057603084538251906001918210156131c05790607860218501536041915b818311613152575050506131105760486123c99386936130f4936130e5985198899376020b1b1b2b9b9a1b7b73a3937b61d1030b1b1b7bab73a1604d1b8a8601526130bc815180928c603789019101612cff565b8401917001034b99036b4b9b9b4b733903937b6329607d1b603784015251809386840190612cff565b01036028810187520185612e6a565b5192839262461bcd60e51b845260048401526024830190612d22565b60648486519062461bcd60e51b825280600483015260248201527f537472696e67733a20686578206c656e67746820696e73756666696369656e746044820152fd5b909192600f811660108110156131ac576f181899199a1a9b1b9c1cb0b131b232b360811b901a6131828587613d4a565b5360041c92801561319857600019019190613068565b634e487b7160e01b82526011600452602482fd5b634e487b7160e01b83526032600452602483fd5b634e487b7160e01b81526032600452602490fd5b3360009081527f9805bb80c0cb3b8457cbce774d5adda6e717284b7d1e937eb2fdc8bbff924719602090815260408083205490927fa49807205ce4d355092ef5a8a18f56e8913cf4a201fbe287825b095693c217759160ff16156132385750505050565b61324133613d71565b9184519061324e82612e4f565b604282528482019260603685378251156131c057603084538251906001918210156131c05790607860218501536041915b8183116132d3575050506131105760486123c99386936130f4936130e5985198899376020b1b1b2b9b9a1b7b73a3937b61d1030b1b1b7bab73a1604d1b8a8601526130bc815180928c603789019101612cff565b909192600f811660108110156131ac576f181899199a1a9b1b9c1cb0b131b232b360811b901a6133038587613d4a565b5360041c9280156131985760001901919061327f565b3360009081527f81bcdf06b56c0ed62a68a6ae231e66722c27e6665c84ec0015693a6d86f2bb93602090815260408083205490927f9f2df0fed2c77648de5860a4cc508cd0818c85b8b8a1ab4ceeef8d981c8956a69160ff161561337d5750505050565b61338633613d71565b9184519061339382612e4f565b604282528482019260603685378251156131c057603084538251906001918210156131c05790607860218501536041915b818311613418575050506131105760486123c99386936130f4936130e5985198899376020b1b1b2b9b9a1b7b73a3937b61d1030b1b1b7bab73a1604d1b8a8601526130bc815180928c603789019101612cff565b909192600f811660108110156131ac576f181899199a1a9b1b9c1cb0b131b232b360811b901a6134488587613d4a565b5360041c928015613198576000190191906133c4565b60009080825260209060978252604092838120338252835260ff8482205416156134885750505050565b61349133613d71565b9184519061349e82612e4f565b604282528482019260603685378251156131c057603084538251906001918210156131c05790607860218501536041915b818311613523575050506131105760486123c99386936130f4936130e5985198899376020b1b1b2b9b9a1b7b73a3937b61d1030b1b1b7bab73a1604d1b8a8601526130bc815180928c603789019101612cff565b909192600f811660108110156131ac576f181899199a1a9b1b9c1cb0b131b232b360811b901a6135538587613d4a565b5360041c928015613198576000190191906134cf565b906000918083526097602052604083209160018060a01b03169182845260205260ff60408420541661359a57505050565b8083526097602052604083208284526020526040832060ff1981541690557ff6391f5c32d9c69d2a47ea670b442974b53935d1edc7fd64eb21e047a839171b339380a4565b156135e657565b60405162461bcd60e51b815260206004820152602c60248201527f46756e6374696f6e206d7573742062652063616c6c6564207468726f7567682060448201526b19195b1959d85d1958d85b1b60a21b6064820152608490fd5b1561364757565b60405162461bcd60e51b815260206004820152602c60248201527f46756e6374696f6e206d7573742062652063616c6c6564207468726f7567682060448201526b6163746976652070726f787960a01b6064820152608490fd5b803b156136d6576000805160206142b183398151915280546001600160a01b0319166001600160a01b03909216919091179055565b60405162461bcd60e51b815260206004820152602d60248201527f455243313936373a206e657720696d706c656d656e746174696f6e206973206e60448201526c1bdd08184818dbdb9d1c9858dd609a1b6064820152608490fd5b6001600160a01b0316801561375157600052606860205260406000205490565b60405162461bcd60e51b815260206004820152602960248201527f4552433732313a2061646472657373207a65726f206973206e6f7420612076616044820152683634b21037bbb732b960b91b6064820152608490fd5b156137af57565b60405162461bcd60e51b815260206004820152601860248201527f4552433732313a20696e76616c696420746f6b656e20494400000000000000006044820152606490fd5b6000908152606760205260409020546001600160a01b03166138178115156137a8565b90565b60008181526067602052604090205461383d906001600160a01b031615156137a8565b6000908152606960205260409020546001600160a01b031690565b1561385f57565b60405162461bcd60e51b815260206004820152602d60248201527f4552433732313a2063616c6c6572206973206e6f7420746f6b656e206f776e6560448201526c1c881bdc88185c1c1c9bdd9959609a1b6064820152608490fd5b60809060208152603260208201527f4552433732313a207472616e7366657220746f206e6f6e20455243373231526560408201527131b2b4bb32b91034b6b83632b6b2b73a32b960711b60608201520190565b1561391457565b60405162461bcd60e51b8152806123c9600482016138ba565b906001600160a01b038080613941846137f4565b16931691838314938415613974575b50831561395e575b50505090565b61396a9192935061381a565b1614388080613958565b909350600052606a60205260406000208260005260205260ff604060002054169238613950565b156139a257565b60405162461bcd60e51b815260206004820152602560248201527f4552433732313a207472616e736665722066726f6d20696e636f72726563742060448201526437bbb732b960d91b6064820152608490fd5b90613a1d91613a03846137f4565b6001600160a01b039391841692849290918316841461399b565b16918215613aba5781613a3a91613a33866137f4565b161461399b565b7fddf252ad1be2c89b69c2b068fc378daa952ba7f163c4a11628f55a4df523b3ef60008481526069602052604081206bffffffffffffffffffffffff60a01b9081815416905583825260686020526040822060001981540190558482526040822060018154019055858252606760205284604083209182541617905580a4565b60405162461bcd60e51b8152602060048201526024808201527f4552433732313a207472616e7366657220746f20746865207a65726f206164646044820152637265737360e01b6064820152608490fd5b3d15613b36573d90613b1c82612e8b565b91613b2a6040519384612e6a565b82523d6000602084013e565b606090565b909190803b15613c2b576020604051809281630a85bd0160e11b9687825233600483015281613b8460009889938460248501526044840152608060648401526084830190612d22565b03926001600160a01b03165af190829082613bdc575b5050613bce57613ba8613b0b565b80519081613bc95760405162461bcd60e51b8152806123c9600482016138ba565b602001fd5b6001600160e01b0319161490565b909192506020813d8211613c23575b81613bf860209383612e6a565b81010312613c1f5751906001600160e01b031982168203613c1c5750903880613b9a565b80fd5b5080fd5b3d9150613beb565b505050600190565b919290803b15613ca857604051630a85bd0160e11b8082523360048301526001600160a01b03948516602483015260448201959095526080606482015291602091839182908190613c88906084830190612d22565b03916000968791165af190829082613bdc575050613bce57613ba8613b0b565b50505050600190565b91929015613d135750815115613cc5575090565b3b15613cce5790565b60405162461bcd60e51b815260206004820152601d60248201527f416464726573733a2063616c6c20746f206e6f6e2d636f6e74726163740000006044820152606490fd5b825190915015613d265750805190602001fd5b60405162461bcd60e51b8152602060048201529081906123c9906024830190612d22565b908151811015613d5b570160200190565b634e487b7160e01b600052603260045260246000fd5b60405190613d7e82612e19565b602a8252602082016040368237825115613d5b57603090538151600190811015613d5b57607860218401536029905b808211613e01575050613dbd5790565b606460405162461bcd60e51b815260206004820152602060248201527f537472696e67733a20686578206c656e67746820696e73756666696369656e746044820152fd5b9091600f81166010811015613e5a576f181899199a1a9b1b9c1cb0b131b232b360811b901a613e308486613d4a565b5360041c918015613e45576000190190613dad565b60246000634e487b7160e01b81526011600452fd5b60246000634e487b7160e01b81526032600452fd5b15613e7657565b60405162461bcd60e51b815260206004820152602b60248201527f496e697469616c697a61626c653a20636f6e7472616374206973206e6f74206960448201526a6e697469616c697a696e6760a81b6064820152608490fd5b6000198114613ede5760010190565b634e487b7160e01b600052601160045260246000fd5b60ff60c95416613f0057565b60405162461bcd60e51b815260206004820152601060248201526f14185d5cd8589b194e881c185d5cd95960821b6044820152606490fd5b15613f3f57565b60405162461bcd60e51b815260206004820152601c60248201527f4552433732313a20746f6b656e20616c7265616479206d696e746564000000006044820152606490fd5b6000818152606760205260409020546001600160a01b031615613fb95760005261019160205260036040600020015442111590565b50600090565b806000917a184f03e93ff9f4daa797ed6e38ed64bf6a1f01000000000000000080821015614119575b506d04ee2d6d415b85acef81000000008083101561410a575b50662386f26fc10000808310156140fb575b506305f5e100808310156140ec575b50612710808310156140dd575b5060648210156140cd575b600a809210156140c3575b6001908160218186019561405887612e8b565b966140666040519889612e6a565b808852614075601f1991612e8b565b01366020890137860101905b61408d575b5050505090565b600019019083906f181899199a1a9b1b9c1cb0b131b232b360811b8282061a8353049182156140be57919082614081565b614086565b9160010191614045565b919060646002910491019161403a565b6004919392049101913861402f565b60089193920491019138614022565b60109193920491019138614013565b60209193920491019138614001565b604093508104915038613fe8565b6001600160401b03811161140e5760051b60200190565b9061414882614127565b6141556040519182612e6a565b8281528092614166601f1991614127565b0190602036910137565b8051821015613d5b5760209160051b010190565b61418d81613731565b6141968161413e565b610193546001939192916000916000198101908390821187805b6141c1575b50505050505050905090565b8161423c5783811161421a576000818152606760205260409020546001600160a01b031615158061421f575b614201575b6141fb90613ecf565b886141b0565b9480866128da614211938b614170565b948686036141f2575b6141b5565b50614229816137f4565b6001600160a01b038681169116146141ed565b634e487b7160e01b83526011600452602483fdfe46501879b8ca8525e8c2fd519e2fbfcfa2ebea26501294aa02cbfcfb12e943542f8788117e7eff1d82e926ec794901d17c78024a50270940304540a733656f0d8ff97419363ffd7000167f130ef7168fbea05faf9251824ca5043f113cc6a7c7360894a13ba1a3210667c828492db98dca3e2076cc3735a920a3ca505d382bbca264697066735822122079dc5c3481db8ef1aa51f0e623d464f1d57db272ed2f91404817b8356c87aa1a64736f6c63430008140033",
  "linkReferences": {},
  "deployedLinkReferences": {}
}